{
  "_format": "hh-sol-artifact-1",
  "contractName": "NFTMarketplace",
  "sourceName": "contracts/NFTMarketplace.sol",
  "abi": [
    {
      "inputs": [],
      "stateMutability": "nonpayable",
      "type": "constructor"
    },
    {
      "anonymous": false,
      "inputs": [
        {
          "indexed": true,
          "internalType": "address",
          "name": "owner",
          "type": "address"
        },
        {
          "indexed": true,
          "internalType": "address",
          "name": "approved",
          "type": "address"
        },
        {
          "indexed": true,
          "internalType": "uint256",
          "name": "tokenId",
          "type": "uint256"
        }
      ],
      "name": "Approval",
      "type": "event"
    },
    {
      "anonymous": false,
      "inputs": [
        {
          "indexed": true,
          "internalType": "address",
          "name": "owner",
          "type": "address"
        },
        {
          "indexed": true,
          "internalType": "address",
          "name": "operator",
          "type": "address"
        },
        {
          "indexed": false,
          "internalType": "bool",
          "name": "approved",
          "type": "bool"
        }
      ],
      "name": "ApprovalForAll",
      "type": "event"
    },
    {
      "anonymous": false,
      "inputs": [
        {
          "indexed": true,
          "internalType": "address",
          "name": "previousOwner",
          "type": "address"
        },
        {
          "indexed": true,
          "internalType": "address",
          "name": "newOwner",
          "type": "address"
        }
      ],
      "name": "OwnershipTransferred",
      "type": "event"
    },
    {
      "anonymous": false,
      "inputs": [
        {
          "indexed": true,
          "internalType": "address",
          "name": "from",
          "type": "address"
        },
        {
          "indexed": true,
          "internalType": "address",
          "name": "to",
          "type": "address"
        },
        {
          "indexed": true,
          "internalType": "uint256",
          "name": "tokenId",
          "type": "uint256"
        }
      ],
      "name": "Transfer",
      "type": "event"
    },
    {
      "inputs": [
        {
          "internalType": "address",
          "name": "to",
          "type": "address"
        },
        {
          "internalType": "uint256",
          "name": "tokenId",
          "type": "uint256"
        }
      ],
      "name": "approve",
      "outputs": [],
      "stateMutability": "nonpayable",
      "type": "function"
    },
    {
      "inputs": [],
      "name": "balance",
      "outputs": [
        {
          "internalType": "uint256",
          "name": "",
          "type": "uint256"
        }
      ],
      "stateMutability": "view",
      "type": "function"
    },
    {
      "inputs": [
        {
          "internalType": "address",
          "name": "owner",
          "type": "address"
        }
      ],
      "name": "balanceOf",
      "outputs": [
        {
          "internalType": "uint256",
          "name": "",
          "type": "uint256"
        }
      ],
      "stateMutability": "view",
      "type": "function"
    },
    {
      "inputs": [
        {
          "internalType": "string",
          "name": "_tokenURI",
          "type": "string"
        },
        {
          "internalType": "uint256",
          "name": "price",
          "type": "uint256"
        },
        {
          "internalType": "bool",
          "name": "_isListing",
          "type": "bool"
        }
      ],
      "name": "createToken",
      "outputs": [
        {
          "internalType": "uint256",
          "name": "",
          "type": "uint256"
        }
      ],
      "stateMutability": "payable",
      "type": "function"
    },
    {
      "inputs": [],
      "name": "currentTokenId",
      "outputs": [
        {
          "components": [
            {
              "internalType": "uint256",
              "name": "tokenId",
              "type": "uint256"
            },
            {
              "internalType": "address payable",
              "name": "owner",
              "type": "address"
            },
            {
              "internalType": "address payable",
              "name": "seller",
              "type": "address"
            },
            {
              "internalType": "uint256",
              "name": "price",
              "type": "uint256"
            },
            {
              "internalType": "bool",
              "name": "isListed",
              "type": "bool"
            },
            {
              "internalType": "uint256",
              "name": "totalSell",
              "type": "uint256"
            },
            {
              "internalType": "bool",
              "name": "isPaid",
              "type": "bool"
            }
          ],
          "internalType": "struct NFTMarketplace.ListedItems",
          "name": "",
          "type": "tuple"
        }
      ],
      "stateMutability": "view",
      "type": "function"
    },
    {
      "inputs": [
        {
          "internalType": "uint256",
          "name": "tokenId",
          "type": "uint256"
        }
      ],
      "name": "executeSell",
      "outputs": [],
      "stateMutability": "payable",
      "type": "function"
    },
    {
      "inputs": [],
      "name": "getAllNfts",
      "outputs": [
        {
          "components": [
            {
              "internalType": "uint256",
              "name": "tokenId",
              "type": "uint256"
            },
            {
              "internalType": "address payable",
              "name": "owner",
              "type": "address"
            },
            {
              "internalType": "address payable",
              "name": "seller",
              "type": "address"
            },
            {
              "internalType": "uint256",
              "name": "price",
              "type": "uint256"
            },
            {
              "internalType": "bool",
              "name": "isListed",
              "type": "bool"
            },
            {
              "internalType": "uint256",
              "name": "totalSell",
              "type": "uint256"
            },
            {
              "internalType": "bool",
              "name": "isPaid",
              "type": "bool"
            }
          ],
          "internalType": "struct NFTMarketplace.ListedItems[]",
          "name": "",
          "type": "tuple[]"
        }
      ],
      "stateMutability": "view",
      "type": "function"
    },
    {
      "inputs": [
        {
          "internalType": "uint256",
          "name": "tokenId",
          "type": "uint256"
        }
      ],
      "name": "getApproved",
      "outputs": [
        {
          "internalType": "address",
          "name": "",
          "type": "address"
        }
      ],
      "stateMutability": "view",
      "type": "function"
    },
    {
      "inputs": [],
      "name": "getListingPrice",
      "outputs": [
        {
          "internalType": "uint256",
          "name": "",
          "type": "uint256"
        }
      ],
      "stateMutability": "view",
      "type": "function"
    },
    {
      "inputs": [],
      "name": "getMyNfts",
      "outputs": [
        {
          "components": [
            {
              "internalType": "uint256",
              "name": "tokenId",
              "type": "uint256"
            },
            {
              "internalType": "address payable",
              "name": "owner",
              "type": "address"
            },
            {
              "internalType": "address payable",
              "name": "seller",
              "type": "address"
            },
            {
              "internalType": "uint256",
              "name": "price",
              "type": "uint256"
            },
            {
              "internalType": "bool",
              "name": "isListed",
              "type": "bool"
            },
            {
              "internalType": "uint256",
              "name": "totalSell",
              "type": "uint256"
            },
            {
              "internalType": "bool",
              "name": "isPaid",
              "type": "bool"
            }
          ],
          "internalType": "struct NFTMarketplace.ListedItems[]",
          "name": "",
          "type": "tuple[]"
        }
      ],
      "stateMutability": "view",
      "type": "function"
    },
    {
      "inputs": [
        {
          "internalType": "address",
          "name": "owner",
          "type": "address"
        },
        {
          "internalType": "address",
          "name": "operator",
          "type": "address"
        }
      ],
      "name": "isApprovedForAll",
      "outputs": [
        {
          "internalType": "bool",
          "name": "",
          "type": "bool"
        }
      ],
      "stateMutability": "view",
      "type": "function"
    },
    {
      "inputs": [
        {
          "internalType": "uint256",
          "name": "tokenId",
          "type": "uint256"
        }
      ],
      "name": "isPaidAlready",
      "outputs": [
        {
          "internalType": "bool",
          "name": "",
          "type": "bool"
        }
      ],
      "stateMutability": "view",
      "type": "function"
    },
    {
      "inputs": [],
      "name": "name",
      "outputs": [
        {
          "internalType": "string",
          "name": "",
          "type": "string"
        }
      ],
      "stateMutability": "view",
      "type": "function"
    },
    {
      "inputs": [],
      "name": "owner",
      "outputs": [
        {
          "internalType": "address",
          "name": "",
          "type": "address"
        }
      ],
      "stateMutability": "view",
      "type": "function"
    },
    {
      "inputs": [
        {
          "internalType": "uint256",
          "name": "tokenId",
          "type": "uint256"
        }
      ],
      "name": "ownerOf",
      "outputs": [
        {
          "internalType": "address",
          "name": "",
          "type": "address"
        }
      ],
      "stateMutability": "view",
      "type": "function"
    },
    {
      "inputs": [
        {
          "internalType": "uint256",
          "name": "tokenId",
          "type": "uint256"
        },
        {
          "internalType": "bool",
          "name": "_isListed",
          "type": "bool"
        }
      ],
      "name": "relisiting",
      "outputs": [],
      "stateMutability": "payable",
      "type": "function"
    },
    {
      "inputs": [],
      "name": "renounceOwnership",
      "outputs": [],
      "stateMutability": "nonpayable",
      "type": "function"
    },
    {
      "inputs": [
        {
          "internalType": "address",
          "name": "from",
          "type": "address"
        },
        {
          "internalType": "address",
          "name": "to",
          "type": "address"
        },
        {
          "internalType": "uint256",
          "name": "tokenId",
          "type": "uint256"
        }
      ],
      "name": "safeTransferFrom",
      "outputs": [],
      "stateMutability": "nonpayable",
      "type": "function"
    },
    {
      "inputs": [
        {
          "internalType": "address",
          "name": "from",
          "type": "address"
        },
        {
          "internalType": "address",
          "name": "to",
          "type": "address"
        },
        {
          "internalType": "uint256",
          "name": "tokenId",
          "type": "uint256"
        },
        {
          "internalType": "bytes",
          "name": "data",
          "type": "bytes"
        }
      ],
      "name": "safeTransferFrom",
      "outputs": [],
      "stateMutability": "nonpayable",
      "type": "function"
    },
    {
      "inputs": [
        {
          "internalType": "address",
          "name": "operator",
          "type": "address"
        },
        {
          "internalType": "bool",
          "name": "approved",
          "type": "bool"
        }
      ],
      "name": "setApprovalForAll",
      "outputs": [],
      "stateMutability": "nonpayable",
      "type": "function"
    },
    {
      "inputs": [
        {
          "internalType": "bytes4",
          "name": "interfaceId",
          "type": "bytes4"
        }
      ],
      "name": "supportsInterface",
      "outputs": [
        {
          "internalType": "bool",
          "name": "",
          "type": "bool"
        }
      ],
      "stateMutability": "view",
      "type": "function"
    },
    {
      "inputs": [],
      "name": "symbol",
      "outputs": [
        {
          "internalType": "string",
          "name": "",
          "type": "string"
        }
      ],
      "stateMutability": "view",
      "type": "function"
    },
    {
      "inputs": [
        {
          "internalType": "uint256",
          "name": "tokenId",
          "type": "uint256"
        }
      ],
      "name": "tokenURI",
      "outputs": [
        {
          "internalType": "string",
          "name": "",
          "type": "string"
        }
      ],
      "stateMutability": "view",
      "type": "function"
    },
    {
      "inputs": [
        {
          "internalType": "address",
          "name": "from",
          "type": "address"
        },
        {
          "internalType": "address",
          "name": "to",
          "type": "address"
        },
        {
          "internalType": "uint256",
          "name": "tokenId",
          "type": "uint256"
        }
      ],
      "name": "transferFrom",
      "outputs": [],
      "stateMutability": "nonpayable",
      "type": "function"
    },
    {
      "inputs": [
        {
          "internalType": "address",
          "name": "newOwner",
          "type": "address"
        }
      ],
      "name": "transferOwnership",
      "outputs": [],
      "stateMutability": "nonpayable",
      "type": "function"
    },
    {
      "inputs": [
        {
          "internalType": "uint256",
          "name": "_updatePrice",
          "type": "uint256"
        }
      ],
      "name": "updateListingPrice",
      "outputs": [],
      "stateMutability": "nonpayable",
      "type": "function"
    },
    {
      "inputs": [
        {
          "internalType": "uint256",
          "name": "tokenId",
          "type": "uint256"
        },
        {
          "internalType": "uint256",
          "name": "_newPrice",
          "type": "uint256"
        }
      ],
      "name": "updateTokenPrice",
      "outputs": [],
      "stateMutability": "nonpayable",
      "type": "function"
    }
  ],
  "bytecode": "0x6080604052662386f26fc100006008553480156200001c57600080fd5b506040518060400160405280600581526020017f53504143450000000000000000000000000000000000000000000000000000008152506040518060400160405280600281526020017f53520000000000000000000000000000000000000000000000000000000000008152508160009080519060200190620000a1929190620001f2565b508060019080519060200190620000ba929190620001f2565b505050620000dd620000d16200012460201b60201c565b6200012c60201b60201c565b33600a60006101000a81548173ffffffffffffffffffffffffffffffffffffffff021916908373ffffffffffffffffffffffffffffffffffffffff16021790555062000307565b600033905090565b6000600760009054906101000a900473ffffffffffffffffffffffffffffffffffffffff16905081600760006101000a81548173ffffffffffffffffffffffffffffffffffffffff021916908373ffffffffffffffffffffffffffffffffffffffff1602179055508173ffffffffffffffffffffffffffffffffffffffff168173ffffffffffffffffffffffffffffffffffffffff167f8be0079c531659141344cd1fd0a4f28419497f9722a3daafe3b4186f6b6457e060405160405180910390a35050565b8280546200020090620002d1565b90600052602060002090601f01602090048101928262000224576000855562000270565b82601f106200023f57805160ff191683800117855562000270565b8280016001018555821562000270579182015b828111156200026f57825182559160200191906001019062000252565b5b5090506200027f919062000283565b5090565b5b808211156200029e57600081600090555060010162000284565b5090565b7f4e487b7100000000000000000000000000000000000000000000000000000000600052602260045260246000fd5b60006002820490506001821680620002ea57607f821691505b60208210811415620003015762000300620002a2565b5b50919050565b61455880620003176000396000f3fe60806040526004361061019b5760003560e01c8063715018a6116100ec578063ae677aa31161008a578063c87b56dd11610064578063c87b56dd14610597578063e985e9c5146105d4578063f2fde38b14610611578063fe97b82e1461063a5761019b565b8063ae677aa31461051a578063b69ef8a814610543578063b88d4fde1461056e5761019b565b8063897925f5116100c6578063897925f5146104725780638da5cb5b1461049b57806395d89b41146104c6578063a22cb465146104f15761019b565b8063715018a614610414578063732e8d731461042b57806385eaaebb146104565761019b565b80630cde5b281161015957806342842e0e1161013357806342842e0e14610334578063480c58ee1461035d5780636352211e1461039a57806370a08231146103d75761019b565b80630cde5b28146102c457806312e85585146102e057806323b872dd1461030b5761019b565b80629a9b7b146101a057806301ffc9a7146101cb578063047b07bf1461020857806306fdde0314610233578063081812fc1461025e578063095ea7b31461029b575b600080fd5b3480156101ac57600080fd5b506101b561066a565b6040516101c29190612fcb565b60405180910390f35b3480156101d757600080fd5b506101f260048036038101906101ed9190613052565b6107a4565b6040516101ff919061308e565b60405180910390f35b34801561021457600080fd5b5061021d610886565b60405161022a91906131e6565b60405180910390f35b34801561023f57600080fd5b50610248610c89565b60405161025591906132a1565b60405180910390f35b34801561026a57600080fd5b50610285600480360381019061028091906132ef565b610d1b565b604051610292919061333d565b60405180910390f35b3480156102a757600080fd5b506102c260048036038101906102bd9190613384565b610d61565b005b6102de60048036038101906102d991906133f0565b610e79565b005b3480156102ec57600080fd5b506102f5611057565b604051610302919061343f565b60405180910390f35b34801561031757600080fd5b50610332600480360381019061032d919061345a565b611061565b005b34801561034057600080fd5b5061035b6004803603810190610356919061345a565b6110c1565b005b34801561036957600080fd5b50610384600480360381019061037f91906132ef565b6110e1565b604051610391919061308e565b60405180910390f35b3480156103a657600080fd5b506103c160048036038101906103bc91906132ef565b611211565b6040516103ce919061333d565b60405180910390f35b3480156103e357600080fd5b506103fe60048036038101906103f991906134ad565b6112c3565b60405161040b919061343f565b60405180910390f35b34801561042057600080fd5b5061042961137b565b005b34801561043757600080fd5b5061044061138f565b60405161044d91906131e6565b60405180910390f35b610470600480360381019061046b91906132ef565b61162d565b005b34801561047e57600080fd5b50610499600480360381019061049491906134da565b611872565b005b3480156104a757600080fd5b506104b0611983565b6040516104bd919061333d565b60405180910390f35b3480156104d257600080fd5b506104db6119ad565b6040516104e891906132a1565b60405180910390f35b3480156104fd57600080fd5b506105186004803603810190610513919061351a565b611a3f565b005b34801561052657600080fd5b50610541600480360381019061053c91906132ef565b611a55565b005b34801561054f57600080fd5b50610558611a67565b604051610565919061343f565b60405180910390f35b34801561057a57600080fd5b506105956004803603810190610590919061368f565b611a6f565b005b3480156105a357600080fd5b506105be60048036038101906105b991906132ef565b611ad1565b6040516105cb91906132a1565b60405180910390f35b3480156105e057600080fd5b506105fb60048036038101906105f69190613712565b611be4565b604051610608919061308e565b60405180910390f35b34801561061d57600080fd5b50610638600480360381019061063391906134ad565b611c78565b005b610654600480360381019061064f91906137f3565b611cfc565b604051610661919061343f565b60405180910390f35b610672612db8565b600061067e6009611dc7565b9050600b60008281526020019081526020016000206040518060e0016040529081600082015481526020016001820160009054906101000a900473ffffffffffffffffffffffffffffffffffffffff1673ffffffffffffffffffffffffffffffffffffffff1673ffffffffffffffffffffffffffffffffffffffff1681526020016002820160009054906101000a900473ffffffffffffffffffffffffffffffffffffffff1673ffffffffffffffffffffffffffffffffffffffff1673ffffffffffffffffffffffffffffffffffffffff168152602001600382015481526020016004820160009054906101000a900460ff16151515158152602001600582015481526020016006820160009054906101000a900460ff16151515158152505091505090565b60007f80ac58cd000000000000000000000000000000000000000000000000000000007bffffffffffffffffffffffffffffffffffffffffffffffffffffffff1916827bffffffffffffffffffffffffffffffffffffffffffffffffffffffff1916148061086f57507f5b5e139f000000000000000000000000000000000000000000000000000000007bffffffffffffffffffffffffffffffffffffffffffffffffffffffff1916827bffffffffffffffffffffffffffffffffffffffffffffffffffffffff1916145b8061087f575061087e82611dd5565b5b9050919050565b606060006108946009611dc7565b905060008060005b838110156109b5573373ffffffffffffffffffffffffffffffffffffffff16600b60006001846108cc9190613891565b815260200190815260200160002060010160009054906101000a900473ffffffffffffffffffffffffffffffffffffffff1673ffffffffffffffffffffffffffffffffffffffff16148061098d57503373ffffffffffffffffffffffffffffffffffffffff16600b60006001846109439190613891565b815260200190815260200160002060020160009054906101000a900473ffffffffffffffffffffffffffffffffffffffff1673ffffffffffffffffffffffffffffffffffffffff16145b156109a25760018261099f9190613891565b91505b80806109ad906138e7565b91505061089c565b5060008167ffffffffffffffff8111156109d2576109d1613564565b5b604051908082528060200260200182016040528015610a0b57816020015b6109f8612db8565b8152602001906001900390816109f05790505b50905060005b84811015610c7e573373ffffffffffffffffffffffffffffffffffffffff16600b6000600184610a419190613891565b815260200190815260200160002060010160009054906101000a900473ffffffffffffffffffffffffffffffffffffffff1673ffffffffffffffffffffffffffffffffffffffff161480610b0257503373ffffffffffffffffffffffffffffffffffffffff16600b6000600184610ab89190613891565b815260200190815260200160002060020160009054906101000a900473ffffffffffffffffffffffffffffffffffffffff1673ffffffffffffffffffffffffffffffffffffffff16145b15610c6b576000600182610b169190613891565b90506000600b60008381526020019081526020016000209050806040518060e0016040529081600082015481526020016001820160009054906101000a900473ffffffffffffffffffffffffffffffffffffffff1673ffffffffffffffffffffffffffffffffffffffff1673ffffffffffffffffffffffffffffffffffffffff1681526020016002820160009054906101000a900473ffffffffffffffffffffffffffffffffffffffff1673ffffffffffffffffffffffffffffffffffffffff1673ffffffffffffffffffffffffffffffffffffffff168152602001600382015481526020016004820160009054906101000a900460ff16151515158152602001600582015481526020016006820160009054906101000a900460ff161515151581525050848781518110610c4e57610c4d613930565b5b6020026020010181905250600186610c669190613891565b955050505b8080610c76906138e7565b915050610a11565b508094505050505090565b606060008054610c989061398e565b80601f0160208091040260200160405190810160405280929190818152602001828054610cc49061398e565b8015610d115780601f10610ce657610100808354040283529160200191610d11565b820191906000526020600020905b815481529060010190602001808311610cf457829003601f168201915b5050505050905090565b6000610d2682611e3f565b6004600083815260200190815260200160002060009054906101000a900473ffffffffffffffffffffffffffffffffffffffff169050919050565b6000610d6c82611211565b90508073ffffffffffffffffffffffffffffffffffffffff168373ffffffffffffffffffffffffffffffffffffffff161415610ddd576040517f08c379a0000000000000000000000000000000000000000000000000000000008152600401610dd490613a32565b60405180910390fd5b8073ffffffffffffffffffffffffffffffffffffffff16610dfc611e8a565b73ffffffffffffffffffffffffffffffffffffffff161480610e2b5750610e2a81610e25611e8a565b611be4565b5b610e6a576040517f08c379a0000000000000000000000000000000000000000000000000000000008152600401610e6190613ac4565b60405180910390fd5b610e748383611e92565b505050565b6000600b600084815260200190815260200160002090503373ffffffffffffffffffffffffffffffffffffffff168160010160009054906101000a900473ffffffffffffffffffffffffffffffffffffffff1673ffffffffffffffffffffffffffffffffffffffff161480610f3d57503373ffffffffffffffffffffffffffffffffffffffff168160020160009054906101000a900473ffffffffffffffffffffffffffffffffffffffff1673ffffffffffffffffffffffffffffffffffffffff16145b610f7c576040517f08c379a0000000000000000000000000000000000000000000000000000000008152600401610f7390613b30565b60405180910390fd5b81156110345760008160050154118015610fab5750600015158160060160009054906101000a900460ff161515145b15610ff5573460085414610ff4576040517f08c379a0000000000000000000000000000000000000000000000000000000008152600401610feb90613b9c565b60405180910390fd5b5b60018160040160006101000a81548160ff02191690831515021790555060018160060160006101000a81548160ff021916908315150217905550611052565b60008160040160006101000a81548160ff0219169083151502179055505b505050565b6000600854905090565b61107261106c611e8a565b82611f4b565b6110b1576040517f08c379a00000000000000000000000000000000000000000000000000000000081526004016110a890613c2e565b60405180910390fd5b6110bc838383611fe0565b505050565b6110dc83838360405180602001604052806000815250611a6f565b505050565b600080600b60008481526020019081526020016000206040518060e0016040529081600082015481526020016001820160009054906101000a900473ffffffffffffffffffffffffffffffffffffffff1673ffffffffffffffffffffffffffffffffffffffff1673ffffffffffffffffffffffffffffffffffffffff1681526020016002820160009054906101000a900473ffffffffffffffffffffffffffffffffffffffff1673ffffffffffffffffffffffffffffffffffffffff1673ffffffffffffffffffffffffffffffffffffffff168152602001600382015481526020016004820160009054906101000a900460ff16151515158152602001600582015481526020016006820160009054906101000a900460ff16151515158152505090508060c00151915050919050565b6000806002600084815260200190815260200160002060009054906101000a900473ffffffffffffffffffffffffffffffffffffffff169050600073ffffffffffffffffffffffffffffffffffffffff168173ffffffffffffffffffffffffffffffffffffffff1614156112ba576040517f08c379a00000000000000000000000000000000000000000000000000000000081526004016112b190613c9a565b60405180910390fd5b80915050919050565b60008073ffffffffffffffffffffffffffffffffffffffff168273ffffffffffffffffffffffffffffffffffffffff161415611334576040517f08c379a000000000000000000000000000000000000000000000000000000000815260040161132b90613d2c565b60405180910390fd5b600360008373ffffffffffffffffffffffffffffffffffffffff1673ffffffffffffffffffffffffffffffffffffffff168152602001908152602001600020549050919050565b611383612247565b61138d60006122c5565b565b6060600061139d6009611dc7565b90506000805b8281101561140a5760011515600b60006001846113c09190613891565b815260200190815260200160002060040160009054906101000a900460ff16151514156113f7576001826113f49190613891565b91505b8080611402906138e7565b9150506113a3565b5060008167ffffffffffffffff81111561142757611426613564565b5b60405190808252806020026020018201604052801561146057816020015b61144d612db8565b8152602001906001900390816114455790505b5090506000805b848110156116225760011515600b60006001846114849190613891565b815260200190815260200160002060040160009054906101000a900460ff161515141561160f5760006001826114ba9190613891565b90506000600b60008381526020019081526020016000209050806040518060e0016040529081600082015481526020016001820160009054906101000a900473ffffffffffffffffffffffffffffffffffffffff1673ffffffffffffffffffffffffffffffffffffffff1673ffffffffffffffffffffffffffffffffffffffff1681526020016002820160009054906101000a900473ffffffffffffffffffffffffffffffffffffffff1673ffffffffffffffffffffffffffffffffffffffff1673ffffffffffffffffffffffffffffffffffffffff168152602001600382015481526020016004820160009054906101000a900460ff16151515158152602001600582015481526020016006820160009054906101000a900460ff1615151515815250508585815181106115f2576115f1613930565b5b602002602001018190525060018461160a9190613891565b935050505b808061161a906138e7565b915050611467565b508194505050505090565b6000600b60008381526020019081526020016000206003015490506000600b600084815260200190815260200160002060020160009054906101000a900473ffffffffffffffffffffffffffffffffffffffff1690503482146116c5576040517f08c379a00000000000000000000000000000000000000000000000000000000081526004016116bc90613d98565b60405180910390fd5b6000600b600085815260200190815260200160002060040160006101000a81548160ff02191690831515021790555033600b600085815260200190815260200160002060020160006101000a81548173ffffffffffffffffffffffffffffffffffffffff021916908373ffffffffffffffffffffffffffffffffffffffff1602179055506001600b600085815260200190815260200160002060050160008282546117709190613891565b925050819055506000600b600085815260200190815260200160002060060160006101000a81548160ff021916908315150217905550600a60009054906101000a900473ffffffffffffffffffffffffffffffffffffffff1673ffffffffffffffffffffffffffffffffffffffff166108fc6008549081150290604051600060405180830381858888f19350505050158015611810573d6000803e3d6000fd5b508073ffffffffffffffffffffffffffffffffffffffff166108fc349081150290604051600060405180830381858888f19350505050158015611857573d6000803e3d6000fd5b50611863303385611fe0565b61186d3084610d61565b505050565b6000600b600084815260200190815260200160002090503373ffffffffffffffffffffffffffffffffffffffff168160010160009054906101000a900473ffffffffffffffffffffffffffffffffffffffff1673ffffffffffffffffffffffffffffffffffffffff16148061193657503373ffffffffffffffffffffffffffffffffffffffff168160020160009054906101000a900473ffffffffffffffffffffffffffffffffffffffff1673ffffffffffffffffffffffffffffffffffffffff16145b611975576040517f08c379a000000000000000000000000000000000000000000000000000000000815260040161196c90613b30565b60405180910390fd5b818160030181905550505050565b6000600760009054906101000a900473ffffffffffffffffffffffffffffffffffffffff16905090565b6060600180546119bc9061398e565b80601f01602080910402602001604051908101604052809291908181526020018280546119e89061398e565b8015611a355780601f10611a0a57610100808354040283529160200191611a35565b820191906000526020600020905b815481529060010190602001808311611a1857829003601f168201915b5050505050905090565b611a51611a4a611e8a565b838361238b565b5050565b611a5d612247565b8060088190555050565b600047905090565b611a80611a7a611e8a565b83611f4b565b611abf576040517f08c379a0000000000000000000000000000000000000000000000000000000008152600401611ab690613c2e565b60405180910390fd5b611acb848484846124f8565b50505050565b6060611adc82611e3f565b6000600660008481526020019081526020016000208054611afc9061398e565b80601f0160208091040260200160405190810160405280929190818152602001828054611b289061398e565b8015611b755780601f10611b4a57610100808354040283529160200191611b75565b820191906000526020600020905b815481529060010190602001808311611b5857829003601f168201915b505050505090506000611b86612554565b9050600081511415611b9c578192505050611bdf565b600082511115611bd1578082604051602001611bb9929190613df4565b60405160208183030381529060405292505050611bdf565b611bda8461256b565b925050505b919050565b6000600560008473ffffffffffffffffffffffffffffffffffffffff1673ffffffffffffffffffffffffffffffffffffffff16815260200190815260200160002060008373ffffffffffffffffffffffffffffffffffffffff1673ffffffffffffffffffffffffffffffffffffffff16815260200190815260200160002060009054906101000a900460ff16905092915050565b611c80612247565b600073ffffffffffffffffffffffffffffffffffffffff168173ffffffffffffffffffffffffffffffffffffffff161415611cf0576040517f08c379a0000000000000000000000000000000000000000000000000000000008152600401611ce790613e8a565b60405180910390fd5b611cf9816122c5565b50565b60003460085414611d42576040517f08c379a0000000000000000000000000000000000000000000000000000000008152600401611d3990613ef6565b60405180910390fd5b60008311611d85576040517f08c379a0000000000000000000000000000000000000000000000000000000008152600401611d7c90613f62565b60405180910390fd5b611d8f60096125d3565b6000611d9b6009611dc7565b9050611da733826125e9565b611db18186612607565b611dbc81858561267b565b809150509392505050565b600081600001549050919050565b60007f01ffc9a7000000000000000000000000000000000000000000000000000000007bffffffffffffffffffffffffffffffffffffffffffffffffffffffff1916827bffffffffffffffffffffffffffffffffffffffffffffffffffffffff1916149050919050565b611e48816127f2565b611e87576040517f08c379a0000000000000000000000000000000000000000000000000000000008152600401611e7e90613c9a565b60405180910390fd5b50565b600033905090565b816004600083815260200190815260200160002060006101000a81548173ffffffffffffffffffffffffffffffffffffffff021916908373ffffffffffffffffffffffffffffffffffffffff160217905550808273ffffffffffffffffffffffffffffffffffffffff16611f0583611211565b73ffffffffffffffffffffffffffffffffffffffff167f8c5be1e5ebec7d5bd14f71427d1e84f3dd0314c0f7b2291e5b200ac8c7c3b92560405160405180910390a45050565b600080611f5783611211565b90508073ffffffffffffffffffffffffffffffffffffffff168473ffffffffffffffffffffffffffffffffffffffff161480611f995750611f988185611be4565b5b80611fd757508373ffffffffffffffffffffffffffffffffffffffff16611fbf84610d1b565b73ffffffffffffffffffffffffffffffffffffffff16145b91505092915050565b8273ffffffffffffffffffffffffffffffffffffffff1661200082611211565b73ffffffffffffffffffffffffffffffffffffffff1614612056576040517f08c379a000000000000000000000000000000000000000000000000000000000815260040161204d90613ff4565b60405180910390fd5b600073ffffffffffffffffffffffffffffffffffffffff168273ffffffffffffffffffffffffffffffffffffffff1614156120c6576040517f08c379a00000000000000000000000000000000000000000000000000000000081526004016120bd90614086565b60405180910390fd5b6120d183838361285e565b6120dc600082611e92565b6001600360008573ffffffffffffffffffffffffffffffffffffffff1673ffffffffffffffffffffffffffffffffffffffff168152602001908152602001600020600082825461212c91906140a6565b925050819055506001600360008473ffffffffffffffffffffffffffffffffffffffff1673ffffffffffffffffffffffffffffffffffffffff16815260200190815260200160002060008282546121839190613891565b92505081905550816002600083815260200190815260200160002060006101000a81548173ffffffffffffffffffffffffffffffffffffffff021916908373ffffffffffffffffffffffffffffffffffffffff160217905550808273ffffffffffffffffffffffffffffffffffffffff168473ffffffffffffffffffffffffffffffffffffffff167fddf252ad1be2c89b69c2b068fc378daa952ba7f163c4a11628f55a4df523b3ef60405160405180910390a4612242838383612863565b505050565b61224f611e8a565b73ffffffffffffffffffffffffffffffffffffffff1661226d611983565b73ffffffffffffffffffffffffffffffffffffffff16146122c3576040517f08c379a00000000000000000000000000000000000000000000000000000000081526004016122ba90614126565b60405180910390fd5b565b6000600760009054906101000a900473ffffffffffffffffffffffffffffffffffffffff16905081600760006101000a81548173ffffffffffffffffffffffffffffffffffffffff021916908373ffffffffffffffffffffffffffffffffffffffff1602179055508173ffffffffffffffffffffffffffffffffffffffff168173ffffffffffffffffffffffffffffffffffffffff167f8be0079c531659141344cd1fd0a4f28419497f9722a3daafe3b4186f6b6457e060405160405180910390a35050565b8173ffffffffffffffffffffffffffffffffffffffff168373ffffffffffffffffffffffffffffffffffffffff1614156123fa576040517f08c379a00000000000000000000000000000000000000000000000000000000081526004016123f190614192565b60405180910390fd5b80600560008573ffffffffffffffffffffffffffffffffffffffff1673ffffffffffffffffffffffffffffffffffffffff16815260200190815260200160002060008473ffffffffffffffffffffffffffffffffffffffff1673ffffffffffffffffffffffffffffffffffffffff16815260200190815260200160002060006101000a81548160ff0219169083151502179055508173ffffffffffffffffffffffffffffffffffffffff168373ffffffffffffffffffffffffffffffffffffffff167f17307eab39ab6107e8899845ad3d59bd9653f200f220920489ca2b5937696c31836040516124eb919061308e565b60405180910390a3505050565b612503848484611fe0565b61250f84848484612868565b61254e576040517f08c379a000000000000000000000000000000000000000000000000000000000815260040161254590614224565b60405180910390fd5b50505050565b606060405180602001604052806000815250905090565b606061257682611e3f565b6000612580612554565b905060008151116125a057604051806020016040528060008152506125cb565b806125aa846129ff565b6040516020016125bb929190613df4565b6040516020818303038152906040525b915050919050565b6001816000016000828254019250508190555050565b612603828260405180602001604052806000815250612b60565b5050565b612610826127f2565b61264f576040517f08c379a0000000000000000000000000000000000000000000000000000000008152600401612646906142b6565b60405180910390fd5b80600660008481526020019081526020016000209080519060200190612676929190612e25565b505050565b6040518060e001604052808481526020013073ffffffffffffffffffffffffffffffffffffffff1681526020013373ffffffffffffffffffffffffffffffffffffffff16815260200183815260200182151581526020016000815260200160011515815250600b60008581526020019081526020016000206000820151816000015560208201518160010160006101000a81548173ffffffffffffffffffffffffffffffffffffffff021916908373ffffffffffffffffffffffffffffffffffffffff16021790555060408201518160020160006101000a81548173ffffffffffffffffffffffffffffffffffffffff021916908373ffffffffffffffffffffffffffffffffffffffff1602179055506060820151816003015560808201518160040160006101000a81548160ff02191690831515021790555060a0820151816005015560c08201518160060160006101000a81548160ff0219169083151502179055509050506127ed333085611fe0565b505050565b60008073ffffffffffffffffffffffffffffffffffffffff166002600084815260200190815260200160002060009054906101000a900473ffffffffffffffffffffffffffffffffffffffff1673ffffffffffffffffffffffffffffffffffffffff1614159050919050565b505050565b505050565b60006128898473ffffffffffffffffffffffffffffffffffffffff16612bbb565b156129f2578373ffffffffffffffffffffffffffffffffffffffff1663150b7a026128b2611e8a565b8786866040518563ffffffff1660e01b81526004016128d4949392919061432b565b602060405180830381600087803b1580156128ee57600080fd5b505af192505050801561291f57506040513d601f19601f8201168201806040525081019061291c919061438c565b60015b6129a2573d806000811461294f576040519150601f19603f3d011682016040523d82523d6000602084013e612954565b606091505b5060008151141561299a576040517f08c379a000000000000000000000000000000000000000000000000000000000815260040161299190614224565b60405180910390fd5b805181602001fd5b63150b7a0260e01b7bffffffffffffffffffffffffffffffffffffffffffffffffffffffff1916817bffffffffffffffffffffffffffffffffffffffffffffffffffffffff1916149150506129f7565b600190505b949350505050565b60606000821415612a47576040518060400160405280600181526020017f30000000000000000000000000000000000000000000000000000000000000008152509050612b5b565b600082905060005b60008214612a79578080612a62906138e7565b915050600a82612a7291906143e8565b9150612a4f565b60008167ffffffffffffffff811115612a9557612a94613564565b5b6040519080825280601f01601f191660200182016040528015612ac75781602001600182028036833780820191505090505b5090505b60008514612b5457600182612ae091906140a6565b9150600a85612aef9190614419565b6030612afb9190613891565b60f81b818381518110612b1157612b10613930565b5b60200101907effffffffffffffffffffffffffffffffffffffffffffffffffffffffffffff1916908160001a905350600a85612b4d91906143e8565b9450612acb565b8093505050505b919050565b612b6a8383612bde565b612b776000848484612868565b612bb6576040517f08c379a0000000000000000000000000000000000000000000000000000000008152600401612bad90614224565b60405180910390fd5b505050565b6000808273ffffffffffffffffffffffffffffffffffffffff163b119050919050565b600073ffffffffffffffffffffffffffffffffffffffff168273ffffffffffffffffffffffffffffffffffffffff161415612c4e576040517f08c379a0000000000000000000000000000000000000000000000000000000008152600401612c4590614496565b60405180910390fd5b612c57816127f2565b15612c97576040517f08c379a0000000000000000000000000000000000000000000000000000000008152600401612c8e90614502565b60405180910390fd5b612ca36000838361285e565b6001600360008473ffffffffffffffffffffffffffffffffffffffff1673ffffffffffffffffffffffffffffffffffffffff1681526020019081526020016000206000828254612cf39190613891565b92505081905550816002600083815260200190815260200160002060006101000a81548173ffffffffffffffffffffffffffffffffffffffff021916908373ffffffffffffffffffffffffffffffffffffffff160217905550808273ffffffffffffffffffffffffffffffffffffffff16600073ffffffffffffffffffffffffffffffffffffffff167fddf252ad1be2c89b69c2b068fc378daa952ba7f163c4a11628f55a4df523b3ef60405160405180910390a4612db460008383612863565b5050565b6040518060e0016040528060008152602001600073ffffffffffffffffffffffffffffffffffffffff168152602001600073ffffffffffffffffffffffffffffffffffffffff16815260200160008152602001600015158152602001600081526020016000151581525090565b828054612e319061398e565b90600052602060002090601f016020900481019282612e535760008555612e9a565b82601f10612e6c57805160ff1916838001178555612e9a565b82800160010185558215612e9a579182015b82811115612e99578251825591602001919060010190612e7e565b5b509050612ea79190612eab565b5090565b5b80821115612ec4576000816000905550600101612eac565b5090565b6000819050919050565b612edb81612ec8565b82525050565b600073ffffffffffffffffffffffffffffffffffffffff82169050919050565b6000612f0c82612ee1565b9050919050565b612f1c81612f01565b82525050565b60008115159050919050565b612f3781612f22565b82525050565b60e082016000820151612f536000850182612ed2565b506020820151612f666020850182612f13565b506040820151612f796040850182612f13565b506060820151612f8c6060850182612ed2565b506080820151612f9f6080850182612f2e565b5060a0820151612fb260a0850182612ed2565b5060c0820151612fc560c0850182612f2e565b50505050565b600060e082019050612fe06000830184612f3d565b92915050565b6000604051905090565b600080fd5b600080fd5b60007fffffffff0000000000000000000000000000000000000000000000000000000082169050919050565b61302f81612ffa565b811461303a57600080fd5b50565b60008135905061304c81613026565b92915050565b60006020828403121561306857613067612ff0565b5b60006130768482850161303d565b91505092915050565b61308881612f22565b82525050565b60006020820190506130a3600083018461307f565b92915050565b600081519050919050565b600082825260208201905092915050565b6000819050602082019050919050565b60e0820160008201516130eb6000850182612ed2565b5060208201516130fe6020850182612f13565b5060408201516131116040850182612f13565b5060608201516131246060850182612ed2565b5060808201516131376080850182612f2e565b5060a082015161314a60a0850182612ed2565b5060c082015161315d60c0850182612f2e565b50505050565b600061316f83836130d5565b60e08301905092915050565b6000602082019050919050565b6000613193826130a9565b61319d81856130b4565b93506131a8836130c5565b8060005b838110156131d95781516131c08882613163565b97506131cb8361317b565b9250506001810190506131ac565b5085935050505092915050565b600060208201905081810360008301526132008184613188565b905092915050565b600081519050919050565b600082825260208201905092915050565b60005b83811015613242578082015181840152602081019050613227565b83811115613251576000848401525b50505050565b6000601f19601f8301169050919050565b600061327382613208565b61327d8185613213565b935061328d818560208601613224565b61329681613257565b840191505092915050565b600060208201905081810360008301526132bb8184613268565b905092915050565b6132cc81612ec8565b81146132d757600080fd5b50565b6000813590506132e9816132c3565b92915050565b60006020828403121561330557613304612ff0565b5b6000613313848285016132da565b91505092915050565b600061332782612ee1565b9050919050565b6133378161331c565b82525050565b6000602082019050613352600083018461332e565b92915050565b6133618161331c565b811461336c57600080fd5b50565b60008135905061337e81613358565b92915050565b6000806040838503121561339b5761339a612ff0565b5b60006133a98582860161336f565b92505060206133ba858286016132da565b9150509250929050565b6133cd81612f22565b81146133d857600080fd5b50565b6000813590506133ea816133c4565b92915050565b6000806040838503121561340757613406612ff0565b5b6000613415858286016132da565b9250506020613426858286016133db565b9150509250929050565b61343981612ec8565b82525050565b60006020820190506134546000830184613430565b92915050565b60008060006060848603121561347357613472612ff0565b5b60006134818682870161336f565b93505060206134928682870161336f565b92505060406134a3868287016132da565b9150509250925092565b6000602082840312156134c3576134c2612ff0565b5b60006134d18482850161336f565b91505092915050565b600080604083850312156134f1576134f0612ff0565b5b60006134ff858286016132da565b9250506020613510858286016132da565b9150509250929050565b6000806040838503121561353157613530612ff0565b5b600061353f8582860161336f565b9250506020613550858286016133db565b9150509250929050565b600080fd5b600080fd5b7f4e487b7100000000000000000000000000000000000000000000000000000000600052604160045260246000fd5b61359c82613257565b810181811067ffffffffffffffff821117156135bb576135ba613564565b5b80604052505050565b60006135ce612fe6565b90506135da8282613593565b919050565b600067ffffffffffffffff8211156135fa576135f9613564565b5b61360382613257565b9050602081019050919050565b82818337600083830152505050565b600061363261362d846135df565b6135c4565b90508281526020810184848401111561364e5761364d61355f565b5b613659848285613610565b509392505050565b600082601f8301126136765761367561355a565b5b813561368684826020860161361f565b91505092915050565b600080600080608085870312156136a9576136a8612ff0565b5b60006136b78782880161336f565b94505060206136c88782880161336f565b93505060406136d9878288016132da565b925050606085013567ffffffffffffffff8111156136fa576136f9612ff5565b5b61370687828801613661565b91505092959194509250565b6000806040838503121561372957613728612ff0565b5b60006137378582860161336f565b92505060206137488582860161336f565b9150509250929050565b600067ffffffffffffffff82111561376d5761376c613564565b5b61377682613257565b9050602081019050919050565b600061379661379184613752565b6135c4565b9050828152602081018484840111156137b2576137b161355f565b5b6137bd848285613610565b509392505050565b600082601f8301126137da576137d961355a565b5b81356137ea848260208601613783565b91505092915050565b60008060006060848603121561380c5761380b612ff0565b5b600084013567ffffffffffffffff81111561382a57613829612ff5565b5b613836868287016137c5565b9350506020613847868287016132da565b9250506040613858868287016133db565b9150509250925092565b7f4e487b7100000000000000000000000000000000000000000000000000000000600052601160045260246000fd5b600061389c82612ec8565b91506138a783612ec8565b9250827fffffffffffffffffffffffffffffffffffffffffffffffffffffffffffffffff038211156138dc576138db613862565b5b828201905092915050565b60006138f282612ec8565b91507fffffffffffffffffffffffffffffffffffffffffffffffffffffffffffffffff82141561392557613924613862565b5b600182019050919050565b7f4e487b7100000000000000000000000000000000000000000000000000000000600052603260045260246000fd5b7f4e487b7100000000000000000000000000000000000000000000000000000000600052602260045260246000fd5b600060028204905060018216806139a657607f821691505b602082108114156139ba576139b961395f565b5b50919050565b7f4552433732313a20617070726f76616c20746f2063757272656e74206f776e6560008201527f7200000000000000000000000000000000000000000000000000000000000000602082015250565b6000613a1c602183613213565b9150613a27826139c0565b604082019050919050565b60006020820190508181036000830152613a4b81613a0f565b9050919050565b7f4552433732313a20617070726f76652063616c6c6572206973206e6f7420746f60008201527f6b656e206f776e6572206e6f7220617070726f76656420666f7220616c6c0000602082015250565b6000613aae603e83613213565b9150613ab982613a52565b604082019050919050565b60006020820190508181036000830152613add81613aa1565b9050919050565b7f596f7520617265206e6f7420616e204f776e6572000000000000000000000000600082015250565b6000613b1a601483613213565b9150613b2582613ae4565b602082019050919050565b60006020820190508181036000830152613b4981613b0d565b9050919050565b7f726571756972656420616d6f756e740000000000000000000000000000000000600082015250565b6000613b86600f83613213565b9150613b9182613b50565b602082019050919050565b60006020820190508181036000830152613bb581613b79565b9050919050565b7f4552433732313a2063616c6c6572206973206e6f7420746f6b656e206f776e6560008201527f72206e6f7220617070726f766564000000000000000000000000000000000000602082015250565b6000613c18602e83613213565b9150613c2382613bbc565b604082019050919050565b60006020820190508181036000830152613c4781613c0b565b9050919050565b7f4552433732313a20696e76616c696420746f6b656e2049440000000000000000600082015250565b6000613c84601883613213565b9150613c8f82613c4e565b602082019050919050565b60006020820190508181036000830152613cb381613c77565b9050919050565b7f4552433732313a2061646472657373207a65726f206973206e6f74206120766160008201527f6c6964206f776e65720000000000000000000000000000000000000000000000602082015250565b6000613d16602983613213565b9150613d2182613cba565b604082019050919050565b60006020820190508181036000830152613d4581613d09565b9050919050565b7f416d6f756e74206973206e6f7420656e6f75676820746f204275790000000000600082015250565b6000613d82601b83613213565b9150613d8d82613d4c565b602082019050919050565b60006020820190508181036000830152613db181613d75565b9050919050565b600081905092915050565b6000613dce82613208565b613dd88185613db8565b9350613de8818560208601613224565b80840191505092915050565b6000613e008285613dc3565b9150613e0c8284613dc3565b91508190509392505050565b7f4f776e61626c653a206e6577206f776e657220697320746865207a65726f206160008201527f6464726573730000000000000000000000000000000000000000000000000000602082015250565b6000613e74602683613213565b9150613e7f82613e18565b604082019050919050565b60006020820190508181036000830152613ea381613e67565b9050919050565b7f6c697374696e67207072696365206d75737420626520302e3031000000000000600082015250565b6000613ee0601a83613213565b9150613eeb82613eaa565b602082019050919050565b60006020820190508181036000830152613f0f81613ed3565b9050919050565b7f5072696365206d75737420626520506f73697469766500000000000000000000600082015250565b6000613f4c601683613213565b9150613f5782613f16565b602082019050919050565b60006020820190508181036000830152613f7b81613f3f565b9050919050565b7f4552433732313a207472616e736665722066726f6d20696e636f72726563742060008201527f6f776e6572000000000000000000000000000000000000000000000000000000602082015250565b6000613fde602583613213565b9150613fe982613f82565b604082019050919050565b6000602082019050818103600083015261400d81613fd1565b9050919050565b7f4552433732313a207472616e7366657220746f20746865207a65726f2061646460008201527f7265737300000000000000000000000000000000000000000000000000000000602082015250565b6000614070602483613213565b915061407b82614014565b604082019050919050565b6000602082019050818103600083015261409f81614063565b9050919050565b60006140b182612ec8565b91506140bc83612ec8565b9250828210156140cf576140ce613862565b5b828203905092915050565b7f4f776e61626c653a2063616c6c6572206973206e6f7420746865206f776e6572600082015250565b6000614110602083613213565b915061411b826140da565b602082019050919050565b6000602082019050818103600083015261413f81614103565b9050919050565b7f4552433732313a20617070726f766520746f2063616c6c657200000000000000600082015250565b600061417c601983613213565b915061418782614146565b602082019050919050565b600060208201905081810360008301526141ab8161416f565b9050919050565b7f4552433732313a207472616e7366657220746f206e6f6e20455243373231526560008201527f63656976657220696d706c656d656e7465720000000000000000000000000000602082015250565b600061420e603283613213565b9150614219826141b2565b604082019050919050565b6000602082019050818103600083015261423d81614201565b9050919050565b7f45524337323155524953746f726167653a2055524920736574206f66206e6f6e60008201527f6578697374656e7420746f6b656e000000000000000000000000000000000000602082015250565b60006142a0602e83613213565b91506142ab82614244565b604082019050919050565b600060208201905081810360008301526142cf81614293565b9050919050565b600081519050919050565b600082825260208201905092915050565b60006142fd826142d6565b61430781856142e1565b9350614317818560208601613224565b61432081613257565b840191505092915050565b6000608082019050614340600083018761332e565b61434d602083018661332e565b61435a6040830185613430565b818103606083015261436c81846142f2565b905095945050505050565b60008151905061438681613026565b92915050565b6000602082840312156143a2576143a1612ff0565b5b60006143b084828501614377565b91505092915050565b7f4e487b7100000000000000000000000000000000000000000000000000000000600052601260045260246000fd5b60006143f382612ec8565b91506143fe83612ec8565b92508261440e5761440d6143b9565b5b828204905092915050565b600061442482612ec8565b915061442f83612ec8565b92508261443f5761443e6143b9565b5b828206905092915050565b7f4552433732313a206d696e7420746f20746865207a65726f2061646472657373600082015250565b6000614480602083613213565b915061448b8261444a565b602082019050919050565b600060208201905081810360008301526144af81614473565b9050919050565b7f4552433732313a20746f6b656e20616c7265616479206d696e74656400000000600082015250565b60006144ec601c83613213565b91506144f7826144b6565b602082019050919050565b6000602082019050818103600083015261451b816144df565b905091905056fea264697066735822122019821dc990be4574cdcd68acebce0511d233a84d0a39595818cc932a364cadd664736f6c63430008090033",
  "linkReferences": {},
  "deployedLinkReferences": {}
}